:03000000020800F3
:0F080000787FE4F6D8FD75A00075813102084AB3
:1008FF001008B7147376D4E6E734F7F6F5C7A357A5
:10090F00E3E11018D711E3733576F613F777B7F4E1
:04091F00C6F1E6A691
:1008D800E4F5A0F58012088FEF75F00A12096B2471
:1008E80008F8E6F580EF75F00A12096BAEF0741897
:0708F8002EF8E6F5A080DEFA
:1009AA00E4FDFCC3ED9FEE6480F8EC648098500788
:0709BA000DBD00010C80ECF3
:0109C1002213
:10098D00C2B37F1D7E001209AAD2B37F031209AA3A
:0C099D00A2B3E433FB7F191209AAAF03D8
:0109A900222B
:0F09D300C2B3D2B3E4FF0FBF03FCA2B3E433FF00
:0109E20022F2
:1009C200C2B3BF0102D2B37F057E001209AAD2B31D
:0109D2002202
:10092400E4FBFA1209D3EF600D7401A802088002F7
:10093400C333D8FC42037F067E001209AA0ABA0810
:03094400E2AF031C
:01094700228D
:02094800A907FD
:10094A00E4FBE9A803088003A2E713D8FBFA5302E1
:10095A0001AF021209C20BBB08E87F057E0002093B
:01096A00AAE2
:10088F0012098D7FCC1209487F441209487F057EDB
:10089F00001209AA30B3FD12098D7FCC1209487FCF
:1008AF00BE120948900000120924AE8274282EF857
:1008BF00A607A3E5826409458370ECE529C454F0CB
:0808CF00FFE528C4540F4FFFA0
:0108D70022FE
:10080F000208D8E493A3F8E493A34003F68001F21F
:10081F0008DFF48029E493A3F85407240CC8C333EA
:10082F00C4540F4420C8834004F456800146F6DFB9
:10083F00E4800B01020408102040809008FFE47E42
:10084F00019360BCA3FF543F30E509541FFEE493AE
:10085F00A360010ECF54C025E060A840B8E493A375
:10086F00FAE493A3F8E493A3C8C582C8CAC583CAA0
:10087F00F0A3C8C582C8CAC583CADFE9DEE780BE58
:0109230000D3
:10096B00C2D530F707B2D563F0FF05F030E70CB214
:10097B00D5F4048463F0FF05F080018430D502F4D4
:02098B00042244
:00000001FF
